:100000000C942A001895000018950000189500001F
:10001000189500001895000018950000189500002C
:10002000189500001895000018950000189500001C
:10003000189500001895000018950000189500000C
:1000400018950000189500001895000018950000FC
:10005000189500008FE58DBFC8E3E0E24E2E84E0E6
:100060008EBFD4E0F4E05F2EA89584B7082E877F7A
:1000700084BF88E1992781BD91BDEEEFF3E0A0E652
:10008000B0E088278D933197E9F76624B89AB99A3A
:10009000BA9AC09AC19A84E690E00E946200C09821
:1000A000C19884E690E00E9462000C944900F894A4
:1000B000FFCF3197F1F70895689462F80895E894B6
:1000C00062F80895EF93FF93EE27E82BE92B31F0C8
:1000D000E8EBFBE03197F1F70197D1F7FF91EF9152
:0200E000089581
:00000001FF
