:100000000C942A001895000018950000189500001F
:10001000189500001895000018950000189500002C
:10002000189500001895000018950000189500001C
:10003000189500001895000018950000189500000C
:1000400018950000189500001895000018950000FC
:10005000189500008FE58DBFC8E3E0E24E2E84E0E6
:100060008EBFD4E0F4E05F2EA89584B7082E877F7A
:1000700084BF88E1992781BD91BDEEEFF3E0A0E652
:10008000B0E088278D933197E9F766248FEF8ABB1C
:100090008FEF87BB8FEF84BB8FEF81BB70E87BBB9B
:1000A0008FE090E00E94DB0170EC7BBB8FE090E082
:1000B0000E94DB0170EE7BBB8FE090E00E94DB01D1
:1000C00070EF7BBB8FE090E00E94DB0178EF7BBBA1
:1000D0008FE090E00E94DB017CEF7BBB8FE090E043
:1000E0000E94DB017EEF7BBB8FE090E00E94DB0192
:1000F0007FEF7BBB8FE090E00E94DB017EEF7BBB5C
:100100008AE090E00E94DB017CEF7BBB8AE090E01C
:100110000E94DB0178EF7BBB8AE090E00E94DB016C
:1001200070EF7BBB8AE090E00E94DB0170EE7BBB4E
:100130008AE090E00E94DB0170EC7BBB8AE090E0FB
:100140000E94DB0170E87BBB8AE090E00E94DB014B
:1001500070E07BBB8AE090E00E94DB0170E878BB36
:100160008FE090E00E94DB0170EC78BB8FE090E0C4
:100170000E94DB0170EE78BB8FE090E00E94DB0113
:1001800070EF78BB8FE090E00E94DB0178EF78BBE6
:100190008FE090E00E94DB017CEF78BB8FE090E085
:1001A0000E94DB017EEF78BB8FE090E00E94DB01D4
:1001B0007FEF78BB8FE090E00E94DB017EEF78BBA1
:1001C0008AE090E00E94DB017CEF78BB8AE090E05F
:1001D0000E94DB0178EF78BB8AE090E00E94DB01AF
:1001E00070EF78BB8AE090E00E94DB0170EE78BB94
:1001F0008AE090E00E94DB0170EC78BB8AE090E03E
:100200000E94DB0170E878BB8AE090E00E94DB018D
:1002100070E078BB8AE090E00E94DB0170E875BB7B
:100220008FE090E00E94DB0170EC75BB8FE090E006
:100230000E94DB0170EE75BB8FE090E00E94DB0155
:1002400070EF75BB8FE090E00E94DB0178EF75BB2B
:100250008FE090E00E94DB017CEF75BB8FE090E0C7
:100260000E94DB017EEF75BB8FE090E00E94DB0116
:100270007FEF75BB8FE090E00E94DB017EEF75BBE6
:100280008AE090E00E94DB017CEF75BB8AE090E0A1
:100290000E94DB0178EF75BB8AE090E00E94DB01F1
:1002A00070EF75BB8AE090E00E94DB0170EE75BBD9
:1002B0008AE090E00E94DB0170EC75BB8AE090E080
:1002C0000E94DB0170E875BB8AE090E00E94DB01D0
:1002D00070E075BB8AE090E00E94DB0170E872BBC1
:1002E0008FE090E00E94DB0170EC72BB8FE090E049
:1002F0000E94DB0170EE72BB8FE090E00E94DB0198
:1003000070EF72BB8FE090E00E94DB0178EF72BB70
:100310008FE090E00E94DB017CEF72BB8FE090E009
:100320000E94DB017EEF72BB8FE090E00E94DB0158
:100330007FEF72BB8FE090E00E94DB017EEF72BB2B
:100340008AE090E00E94DB017CEF72BB8AE090E0E3
:100350000E94DB0178EF72BB8AE090E00E94DB0133
:1003600070EF72BB8AE090E00E94DB0170EE72BB1E
:100370008AE090E00E94DB0170EC72BB8AE090E0C2
:100380000E94DB0170E872BB8AE090E00E94DB0112
:1003900070E072BB8AE090E00E94DB010C944E009A
:1003A000F894FFCF3197F1F70895689462F80895B3
:1003B000E89462F80895EF93FF93EE27E82BE92B7A
:1003C00031F0E8EBFBE03197F1F70197D1F7FF91BE
:0403D000EF9108950C
:00000001FF
