:100000000C944A00189500001895000018950000FF
:10001000189500001895000018950000189500002C
:10002000189500001895000018950000189500001C
:10003000189500001895000018950000189500000C
:1000400018950000189500001895000018950000FC
:1000500018950000189500001895000018950000EC
:1000600018950000189500001895000018950000DC
:1000700018950000189500001895000018950000CC
:1000800018950000189500001895000018950000BC
:10009000189500008FEF8DBFC8EDE0EC4E2E88E084
:1000A0008EBFD8E0F8E05F2EA89584B7082E877F32
:1000B00084BF88E199278093600090936000EEEF01
:1000C000F7E0A0E0B1E088278D933197E9F7662447
:1000D0008FEF8AB970E87BB98FE090E00E94D7007B
:1000E00070EC7BB98FE090E00E94D70070EE7BB996
:1000F0008FE090E00E94D70070EF7BB98FE090E036
:100100000E94D70078EF7BB98FE090E00E94D70083
:100110007CEF7BB98FE090E00E94D7007EEF7BB947
:100120008FE090E00E94D7007FEF7BB98FE090E0F6
:100130000E94D7007EEF7BB98AE090E00E94D70052
:100140007CEF7BB98AE090E00E94D70078EF7BB922
:100150008AE090E00E94D70070EF7BB98AE090E0DF
:100160000E94D70070EE7BB98AE090E00E94D70031
:1001700070EC7BB98AE090E00E94D70070E87BB910
:100180008AE090E00E94D70070E07BB98AE090E0BE
:100190000E94D7000C946A00F894FFCF3197F1F7D2
:1001A0000895689462F80895E89462F80895EF93CA
:1001B000FF93EE27E82BE92B31F0E8EBFBE03197DA
:0C01C000F1F70197D1F7FF91EF9108953E
:00000001FF
