:100000000C942A001895000018950000189500001F
:10001000189500001895000018950000189500002C
:10002000189500001895000018950000189500001C
:10003000189500001895000018950000189500000C
:1000400018950000189500001895000018950000FC
:10005000189500008FE58DBFC8E3E0E24E2E84E0E6
:100060008EBFD4E0F4E05F2EA89584B7082E877F7A
:1000700084BF88E1992781BD91BDEEEFF3E0A0E652
:10008000B0E088278D933197E9F766248FEF87BB1F
:1000900070E878BB8FE090E00E94B50070EC78BB10
:1000A0008FE090E00E94B50070EE78BB8FE090E0AA
:1000B0000E94B50070EF78BB8FE090E00E94B50021
:1000C00078EF78BB8FE090E00E94B5007CEF78BBC2
:1000D0008FE090E00E94B5007EEF78BB8FE090E06B
:1000E0000E94B5007FEF78BB8FE090E00E94B500E2
:1000F0007EEF78BB8AE090E00E94B5007CEF78BB91
:100100008AE090E00E94B50078EF78BB8AE090E04A
:100110000E94B50070EF78BB8AE090E00E94B500C5
:1001200070EE78BB8AE090E00E94B50070EC78BB7E
:100130008AE090E00E94B50070E878BB8AE090E029
:100140000E94B50070E078BB8AE090E00E94B500A4
:100150000C944800F894FFCF3197F1F70895689414
:1001600062F80895E89462F80895EF93FF93EE27FC
:10017000E82BE92B31F0E8EBFBE03197F1F7019741
:08018000D1F7FF91EF91089502
:00000001FF
